:100000000C9407020C9426020C9426020C942602EF
:100010000C9426020C9426020C9426020C942602C0
:100020000C9426020C9426020C9426020C942602B0
:100030000C9426020C9426020C9426020C94AA0816
:100040000C9426020C9426020C9412090C943E097E
:100050000C946D090C9426020C9426020C94260232
:100060000C9426020C9426020C9426020C94260270
:100070000C9426020C9426020C94030A0C94320A67
:100080000C94660A0C9426020C94260208000000C8
:10009000BE922449123EABAAAA2ABECDCCCC4C3E7D
:1000A00000000080BEABAAAAAA3E00000000BF006C
:1000B0000000803F0000000000084178D3BB438768
:1000C000D1133D190E3CC3BD4282AD2B3E68EC827C
:1000D00076BED98FE1A93E4C80EFFFBE01C4FF7F01
:1000E0003F000000000007634236B79BD8A71A39CB
:1000F000685618AEBAAB558C1D3CB7CC5763BD6D76
:10010000EDFD753EF6177231BF000000803F000024
:1001100000000000000000000000000000000000DF
:1001200000000000000000000000000000000000CF
:1001300000000000000000000000000000000000BF
:1001400000000000000000000000000000000000AF
:10015000000000000000000000000000000000009F
:10016000000000000000000000000000000000008F
:10017000000000000000000000000000000000007F
:10018000000000000000000000000000000000006F
:10019000000000000000000000000000000000005F
:1001A000000000000000000000000000000000004F
:1001B000000000000000000000000000000000003F
:1001C000000000000000000000000000000000002F
:1001D000000000000000BE00000000060006000055
:1001E00044FE44FE44004C92FE926400866610CCAD
:1001F000C2006E92AEA040A00006000000000038D1
:100200004482000000824438000000040E04000014
:1002100010107C1010000040C000000010101010E2
:10022000100000C0C000000000C0380600007CA222
:10023000928A7C000084FE80000084C2A2928C001E
:1002400042828A966200302824FE20004E8A8A8AE2
:10025000720078949292600002E2120A06006C9298
:1002600092926C000C9292523C00000044000000FC
:100270000040C40000000010284482000028282804
:1002800028280082442810000004A2120C007C825E
:10029000BAAAB21CFC121212FC00FE9292926C00DE
:1002A0007C8282824400FE8282827C00FE92929254
:1002B0008200FE12121202007C829292F400FE1062
:1002C0001010FE000082FE8200004080827E02004C
:1002D000FE1028448200FE8080808000FE04180406
:1002E000FE00FE081020FE007C8282827C00FE124E
:1002F00012120C007C82A242BC00FE1232528C0010
:100300008C92929262000202FE0202007E80808045
:100310007E001E6080601E007E8070807E00C62889
:100320001028C6000E10E0100E00C2A2928A8600AD
:100330000000FE820000000638C00000000082FEBF
:100340000000080402040800008080808000000093
:100350000204000040A8A8A8F000FE908888700061
:1003600070888888400070888890FE0070A8A8A8CF
:10037000300010FC120400004098A4A47C00FE1081
:100380000808F0000088FA8000004080807A0000B1
:10039000FE20508800000082FE800000F80830082F
:1003A000F000F8100808F000708888887000F828BD
:1003B0002828100010282830F800F810080810002D
:1003C00090A8A8A84000087E88804000788080809F
:1003D000780038408040380078806080780088500D
:1003E0002050880018A0A0A0780088C8A89888008D
:1003F0000010EE8200000000FE000000000082EE0F
:100400001000100810201000007C7C000000112457
:100410001FBECFEFD0E1DEBFCDBF17E0A0E0B1E05F
:10042000EAEFF8E500E00BBF02C007900D92AE3C8A
:10043000B107D9F71CE0AEECB7E001C01D92A63AB7
:10044000B107E1F70E94EC1D0C947B2C0C9400008A
:10045000FB01DA01E80FF91F01C081938D91882318
:10046000E1F70895F8946115710519F460E074E0FE
:1004700002C068E17CE043E050E00E94B42B789435
:100480000895F894009729F481E598E060E074E01D
:1004900004C081E598E068E17CE043E050E00E9420
:1004A000C42B78940895CF93DF93EC0160E071E062
:1004B00047E050E00E946629009761F5AC2FBD2F00
:1004C000FD0101900020E9F7EA1BFB0B3D97E430AA
:1004D000F10500F5BE01695F7F4F85E598E00E9458
:1004E0005F2988E091E00E949B1185E598E00E94D9
:1004F0009B118CE191E00E949B1181EA809354084A
:10050000F89484E598E060E070E04AE050E00E94F2
:10051000C42B7894DF91CF910895CF92DF92EF9220
:10052000FF920F931F93CF93DF93CDB7DEB7C054E5
:10053000D0400FB6F894DEBF0FBECDBF81E090E093
:100540009093D7078093D6076115710509F451C5BB
:100550000E9408167C01DC0111962C9180915208B2
:1005600090915308820F911D9093530880935208E5
:1005700080E090E00E94410281E090E00E94410210
:1005800089E10E949D1081E00E94B21081E00E94EA
:100590006E1082ED93E00E942F1080E00E949D106B
:1005A00080E00E94B21080E00E946E108CED93E01B
:1005B0000E942F10EFE3FCE93197F1F700C0000033
:1005C00082E30E94C7102DB73EB72A5030400FB6C5
:1005D000F8943EBF0FBE2DBFEDB7FEB731968E012A
:1005E0000F5F1F4FADB7BEB712961C930E931197B6
:1005F0008EEE93E093838283D70112968C911297AB
:1006000090E08053984F9583848313968C91139731
:100610008683178214968C91808711860E94742994
:10062000EDB7FEB73A960FB6F894FEBF0FBEEDBF1A
:10063000C8010E942F10D7018C91813021F4C8018C
:1006400065E074E005C0833031F4C8016FE174E007
:100650000E945F2921C08230F9F400D000D000D080
:10066000EDB7FEB73196ADB7BEB712961C930E9399
:10067000119786E394E093838283D70111968C913E
:10068000848315820E947429EDB7FEB736960FB6A3
:10069000F894FEBF0FBEEDBF8E010F5F1F4FC80164
:1006A0000E942F108BE291E00E942F108FE39CE9B3
:1006B0000197F1F700C00000ADB7BEB71A970FB6AB
:1006C000F894BEBF0FBEADBFEDB7FEB73196129620
:1006D0001C930E9311978FE494E093838283D70148
:1006E00015968C9115978483158216968C91169782
:1006F0008683178217968C91808711860E947429B1
:10070000EDB7FEB73A960FB6F894FEBF0FBEEDBF39
:10071000C8010E942F108FE39CE90197F1F700C0F8
:10072000000089E10E948310D7012C9118968D91C9
:100730009C911997213091F4EDB7FEB738970FB619
:10074000F894FEBF0FBEEDBF3196ADB7BEB712969F
:100750001C930E9311972CE634E016C02330C9F495
:100760002DB73EB7285030400FB6F8943EBF0FBEAD
:100770002DBFEDB7FEB73196ADB7BEB712961C933D
:100780000E9311972CE834E0338322836CE370E0FE
:1007900049C02DB73EB7285030400FB6F8943EBF41
:1007A0000FBE2DBFEDB7FEB73196ADB7BEB71296EF
:1007B0001C930E93119729EA34E0338322835CE380
:1007C000C52ED12CB6010E941629758364839783A8
:1007D00086830E947429EDB7FEB738960FB6F89459
:1007E000FEBF0FBEEDBFC8010E942F1089E10E941D
:1007F0008310D7011A968D919C911B97EDB7FEB788
:1008000038970FB6F894FEBF0FBEEDBF3196ADB767
:10081000BEB712961C930E93119729EC34E03383E4
:100820002283B6010E941629758364839783868389
:100830000E947429EDB7FEB738960FB6F894FEBF44
:100840000FBEEDBFC8010E942F108FE39CE90197F6
:10085000F1F700C00000D70153968C91539788237D
:1008600009F459C01C968D919C911D97009759F1E0
:10087000EDB7FEB738970FB6F894FEBF0FBEEDBFC9
:1008800031968E010F5F1F4FADB7BEB712961C9306
:100890000E93119727EE34E0338322836CE370E0EC
:1008A0000E94162975836483978386830E94742926
:1008B000EDB7FEB738960FB6F894FEBF0FBEEDBF8A
:1008C000C8010E942F10D70153968C9190E00E948E
:1008D000F81500D000D000D0EDB7FEB731968E01EC
:1008E0000F5F1F4FADB7BEB712961C930E931197B3
:1008F0002BE035E033832283958384830E9474291F
:10090000EDB7FEB736960FB6F894FEBF0FBEEDBF3B
:10091000C8010E942F102DB73EB72A5030400FB6A5
:10092000F8943EBF0FBE2DBFEDB7FEB731968E01D6
:100930000F5F1F4FADB7BEB712961C930E93119762
:1009400089E195E093838283D70150968C915097EB
:100950008483158251968C91519786831782529683
:100960008C91808711860E947429EDB7FEB73A9664
:100970000FB6F894FEBF0FBEEDBFC8010E942F1046
:100980008BE291E00E942F10D7011E968D919C91D1
:100990001F97EDB7FEB738970FB6F894FEBF0FBE9E
:1009A000EDBF3196ADB7BEB712961C930E9311975B
:1009B00024E335E0338322836CE370E00E94162940
:1009C00075836483978386830E947429EDB7FEB78D
:1009D00038960FB6F894FEBF0FBEEDBFC8010E9457
:1009E0002F1000D000D000D0EDB7FEB73196ADB7D4
:1009F000BEB712961C930E93119788E595E09383EA
:100A000082838091520890915308958384830E9439
:100A10007429EDB7FEB736960FB6F894FEBF0FBE39
:100A2000EDBFC8010E942F108BE291E00E942F10B1
:100A300089E10E949D1081E00E94B21081E00E9435
:100A40006E10D70153968C915397882319F483E73E
:100A500095E002C08DE795E00E942F1080E00E9493
:100A60009D1080E00E94B21080E00E946E1084E829
:100A700095E00E942F10F7018081813031F08230A3
:100A800031F0833031F02EE405C023E503C022E5C8
:100A900001C024E48DB79EB742970FB6F8949EBF6D
:100AA0000FBE8DBFEDB7FEB731968E010F5F1F4FA2
:100AB000ADB7BEB712961C930E93119785EA95E0D9
:100AC00093838283D70112968C9112978483158227
:100AD00013968C9113978683178214968C91149792
:100AE0008087118650968C915097828713865196F5
:100AF0008C9151978487158652968C91868717869C
:100B0000208B118A0E947429EDB7FEB772960FB63A
:100B1000F894FEBF0FBEEDBFC8010E94CC118FE359
:100B20009CE90197F1F700C00000AFE3BCE9119721
:100B3000F1F700C0000082ED93E00E949B11EFE30B
:100B4000FCE93197F1F700C0000086EC95E00E94C7
:100B50009B118FE39CE90197F1F700C00000ADB74E
:100B6000BEB71A970FB6F894BEBF0FBEADBFEDB7B4
:100B7000FEB7319612961C930E9311978EEE93E06A
:100B800093838283D70112968C91129790E08053C1
:100B9000984F9583848313968C911397868317823D
:100BA00014968C91808711860E947429EDB7FEB748
:100BB0003A960FB6F894FEBF0FBEEDBFC8010E9473
:100BC0009B118FE39CE90197F1F700C00000D7016A
:100BD0008C91813021F4C80165E074E005C0833058
:100BE00031F4C8016FE174E00E945F2921C08230B6
:100BF000F9F400D000D000D0EDB7FEB73196ADB714
:100C0000BEB712961C930E93119786E394E09383DC
:100C10008283D70111968C91848315820E94742956
:100C2000EDB7FEB736960FB6F894FEBF0FBEEDBF18
:100C30008E010F5F1F4FC8010E949B118FE39CE93B
:100C40000197F1F700C00000ADB7BEB71A970FB615
:100C5000F894BEBF0FBEADBFEDB7FEB7319612968A
:100C60001C930E9311978FE494E093838283D701B2
:100C700015968C9115978483158216968C911697EC
:100C80008683178217968C91808711860E9474291B
:100C9000EDB7FEB73A960FB6F894FEBF0FBEEDBFA4
:100CA000C8010E949B118FE39CE90197F1F700C0F6
:100CB0000000D7012C9118968D919C9119972130A5
:100CC00091F4EDB7FEB738970FB6F894FEBF0FBE9C
:100CD000EDBF3196ADB7BEB712961C930E93119728
:100CE0002CE634E016C02330C9F42DB73EB72850A7
:100CF00030400FB6F8943EBF0FBE2DBFEDB7FEB724
:100D00003196ADB7BEB712961C930E9311972CE88F
:100D100034E0338322836CE370E046C02DB73EB7E6
:100D2000285030400FB6F8943EBF0FBE2DBFEDB730
:100D3000FEB73196ADB7BEB712961C930E931197BE
:100D400029EA34E0338322834CE3C42ED12CB6014C
:100D50000E94162975836483978386830E94742971
:100D6000EDB7FEB738960FB6F894FEBF0FBEEDBFD5
:100D7000C8010E949B11D7011A968D919C911B97D7
:100D8000EDB7FEB738970FB6F894FEBF0FBEEDBFB4
:100D90003196ADB7BEB712961C930E93119729ECFE
:100DA00034E033832283B6010E941629758364835D
:100DB000978386830E947429EDB7FEB738960FB6E5
:100DC000F894FEBF0FBEEDBFC8010E949B11D70172
:100DD00053968C915397882309F459C01C968D9192
:100DE0009C911D97009759F1EDB7FEB738970FB654
:100DF000F894FEBF0FBEEDBF31968E010F5F1F4FFF
:100E0000ADB7BEB712961C930E93119728ED35E03F
:100E1000338322836CE370E00E9416297583648318
:100E2000978386830E947429EDB7FEB738960FB674
:100E3000F894FEBF0FBEEDBFC8010E949B11D70101
:100E400053968C9190E00E94F81500D000D000D00D
:100E5000EDB7FEB731968E010F5F1F4FADB7BEB72E
:100E600012961C930E9311972BE035E03383228367
:100E7000958384830E947429EDB7FEB736960FB62A
:100E8000F894FEBF0FBEEDBFC8010E949B112DB7A5
:100E90003EB72A5030400FB6F8943EBF0FBE2DBF6C
:100EA000EDB7FEB731968E010F5F1F4FADB7BEB7DE
:100EB00012961C930E93119789E195E09383828398
:100EC000D70150968C9150978483158251968C91BE
:100ED00051978683178252968C91808711860E9443
:100EE0007429EDB7FEB73A960FB6F894FEBF0FBE61
:100EF000EDBFC8010E949B118FE39CE90197F1F7B8
:100F000000C00000D7011E968D919C911F97EDB7F0
:100F1000FEB738970FB6F894FEBF0FBEEDBF3196FF
:100F2000ADB7BEB712961C930E93119724E335E02C
:100F3000338322836CE370E00E94162975836483F7
:100F4000978386830E947429EDB7FEB738960FB653
:100F5000F894FEBF0FBEEDBFC8010E949B118FE346
:100F60009CE90197F1F700C0000000D000D000D04C
:100F7000EDB7FEB73196ADB7BEB712961C930E9380
:100F8000119788EF95E09383828380915208909126
:100F90005308958384830E947429EDB7FEB7369673
:100FA0000FB6F894FEBF0FBEEDBFC8010E949B11A3
:100FB0008FE39CE90197F1F700C00000D701539639
:100FC0008C915397882319F483E795E002C08DE74D
:100FD00095E00E949B11EFE3FCE93197F1F700C027
:100FE00000000E94C1118FE39CE90197F1F700C056
:100FF0000000C05CDF4F0FB6F894DEBF0FBECDBF60
:10100000DF91CF911F910F91FF90EF90DF90CF90E4
:10101000089581E090E09093D7078093D6070895D4
:10102000E2ECF8E080E090E0208127FD0CC0FC01BC
:10103000EE0FFF1FEE0FFF1FE80FF91FEE53F74FE4
:1010400020E820830895019635968031910561F757
:101050008FEF9FEF08958031910568F4FC01EE0F4A
:10106000FF1FEE0FFF1FE80FF91FEE53F74F10821F
:1010700080E090E008958FEF9FEF08958031910513
:10108000A8F4FC01EE0FFF1FEE0FFF1FE80FF91F82
:10109000EE53F74F808187FF0CC0418352836383F7
:1010A000748381E8808380E090E008958FEF9FEF64
:1010B00008958FEF9FEF089580319105D0F4FC01E2
:1010C000EE0FFF1FEE0FFF1FE80FF91FEE53F74F54
:1010D0008081813889F481E090E04181528163818F
:1010E0007481411551056105710541F480E090E07E
:1010F00008958FEF9FEF08958FEF9FEF0895803150
:10110000910570F4FC01EE0FFF1FEE0FFF1FE80FBB
:10111000F91FEE53F74F808187FF05C080E8808379
:101120008FEF9FEF089580E090E00895E2ECF8E003
:1011300010821182128213821482359689E0E23184
:10114000F807B1F78EE381BF12BE8EE083BF82E065
:1011500087BF08951F920F920FB60F920BB60F9292
:1011600011248F939F93AF93BF93EF93FF9380913D
:10117000BE089091BF08A091C008B091C108019627
:10118000A11DB11D8093BE089093BF08A093C00815
:10119000B093C108E3ECF8E080819181A281B38132
:1011A0000097A105B10539F00197A109B109808324
:1011B0009183A283B383359689E0E331F80761F721
:1011C000FF91EF91BF91AF919F918F910F900BBEC7
:1011D0000F900FBE0F901F9018950F931F939B01B8
:1011E000AC0182E08BB988ED8AB986E080939500E6
:1011F00060E874E88EE190E00E943D2989019A013F
:10120000D901C8010197A109B109892F9A2FAB2FE4
:10121000BB2780939000015009B980E090E01F91B6
:101220000F9108951F920F920FB60F920BB60F9267
:1012300011242F938F939F93EF93FF935F9BFECF88
:101240002CB18091E90790E0FC01EE5EF64F20831F
:1012500001968F7390708093E9078091E8078F5F04
:101260008093E807FF91EF919F918F912F910F90BD
:101270000BBE0F900FBE0F901F9018951F920F92EC
:101280000FB60F920BB60F9211242F933F938F93AB
:101290009F93EF93FF932091E507222381F08091A4
:1012A000E70790E0FC01EE5AF64F30813CB9019619
:1012B0008F7390708093E70721502093E50755982E
:1012C000FF91EF919F918F913F912F910F900BBEC6
:1012D0000F900FBE0F901F9018951F920F920FB690
:1012E0000F920BB60F9211242F933F938F939F93DE
:1012F000EF93FF932091E507222381F08091E70788
:1013000090E0FC01EE5AF64F30813CB901968F73A4
:1013100090708093E70721502093E507FF91EF91AC
:101320009F918F913F912F910F900BBE0F900FBE09
:101330000F901F901895F8942091E8072223C9F088
:10134000E091EA07F0E0EE5EF64F2081FC01208399
:101350008091EA0790E001968F7390708093EA077E
:101360008091E80781508093E807789481E090E0CD
:101370000895789480E090E00895F894559A40910B
:10138000E5074034A0F42091E60730E0F901EE5A79
:10139000F64F8083C90101968F7390708093E607A2
:1013A0004F5F4093E507789481E090E0089578944A
:1013B00080E090E008950F931F939B01AC0182E0C1
:1013C00080939B0088ED80939A0086E080939D0037
:1013D00060E874E88EE190E00E943D2989019A015D
:1013E000D901C8010197A109B109892F9A2FAB2F03
:1013F000BB278093980001500093990080E090E013
:101400001F910F9108951F920F920FB60F920BB676
:101410000F9211242F938F939F93EF93FF938091BB
:101420009B0087FFFCCF20919C008091EF0790E00C
:10143000FC01EE52F64F208301968F7390708093DB
:10144000EF078091EE078F5F8093EE07FF91EF919A
:101450009F918F912F910F900BBE0F900FBE0F9009
:101460001F9018951F920F920FB60F920BB60F9206
:1014700011242F933F938F939F93EF93FF9320918A
:10148000EB07222389F08091ED0790E0FC01EE56F6
:10149000F64F308130939C0001968F73907080934B
:1014A000ED0721502093EB0780919A008F7D809368
:1014B0009A00FF91EF919F918F913F912F910F9003
:1014C0000BBE0F900FBE0F901F9018951F920F929A
:1014D0000FB60F920BB60F9211242F933F938F9359
:1014E0009F93EF93FF932091EB07222389F0809144
:1014F000ED0790E0FC01EE56F64F308130939C00F2
:1015000001968F7390708093ED0721502093EB0725
:10151000FF91EF919F918F913F912F910F900BBE73
:101520000F900FBE0F901F901895F8942091EE0722
:101530002223C9F0E091F007F0E0EE52F64F20814F
:10154000FC0120838091F00790E001968F739070EA
:101550008093F0078091EE0781508093EE07789496
:1015600081E090E00895789480E090E00895F89408
:1015700090919A00906290939A004091EB074034CA
:10158000A0F42091EC0730E0F901EE56F64F80838D
:10159000C90101968F7390708093EC074F5F409361
:1015A000EB07789481E090E00895789480E090E0F3
:1015B0000895E2E6F0E0808180618083808180622E
:1015C0008083E1E6F0E080818061808380818062B9
:1015D00080830895E2E6F0E08081806180838081ED
:1015E00080628083A1E6B0E08C9180618C938C91C5
:1015F00080628C9385E28A95F1F7000080818F7E6E
:10160000808385E28A95F1F7000080818F7D808359
:101610000895A1E6B0E08C9180618C93E2E6F0E061
:1016200080818F7D808385E28A95F1F7000080813B
:101630008062808385E18A95F1F700008081806176
:1016400080838C918F7E8C9308959091620090613D
:1016500090936200909161009061909361009091ED
:1016600062009F7D9093620098E02091620087FF66
:1016700002C0206101C02F7E2093620025E32A95DD
:10168000F1F7000020916200206220936200880F31
:1016900025E32A95F1F70000209162002F7D209329
:1016A0006200915011F78091620080618093620026
:1016B000809161008F7E8093610085E38A95F1F7C8
:1016C00000008091620080628093620025E32A9589
:1016D000F1F70000809162008F7D8093620085E3C6
:1016E0008A95F1F700000895382F9091620090617B
:1016F00090936200909161009F7E909361002AE137
:101700002A95F1F700C098E080E0880F20916200F0
:101710002062209362000499816025E32A95F1F705
:101720000000209162002F7D2093620025E32A951E
:10173000F1F70000915049F790916100906190930A
:101740006100909162003323B9F49F7E9093620010
:101750009091620090629093620095E39A95F1F700
:101760000000909162009F7D9093620090916200D2
:101770009F7E909362000895906190936200909193
:10178000620090629093620025E32A95F1F70000D1
:10179000909162009F7D90936200909162009F7E85
:1017A0009093620008951F93CF93DF930F92CDB76C
:1017B000DEB7182F0E94EA0A80ED0E94250B812FC8
:1017C0000E94250B0E94090B0E94EA0A81ED0E94EB
:1017D000250B85E38A95F1F7000080E00E94740BE9
:1017E00089830E94090B898190E00F90DF91CF914E
:1017F0001F910895482F42954F7050E09A01220F93
:10180000331F63E0440F551F6A95E1F7240F351F1E
:101810008F70280F311DC9010895CF93DF93EC011C
:1018200082E00E94D30B0E94FA0B888381E00E9421
:10183000D30B0E94FA0B898380E00E94D30B0E9495
:10184000FA0B8A8380E090E0DF91CF910895CF93E7
:10185000DF93EC0186E00E94D30B0E94FA0B888391
:1018600085E00E94D30B0E94FA0B898384E00E94DA
:10187000D30B0E94FA0B8A8380E090E0DF91CF9136
:1018800008950F931F93CF93DF938C01EB0182E0B8
:101890000E94D30B0E94FA0BF801808381E00E9422
:1018A000D30B0E94FA0B888380E090E0DF91CF9108
:1018B0001F910F9108956AE00E940A298295807F06
:1018C000890F0895AF92BF92CF92DF92EF920F935C
:1018D0001F93CF93DF9300D00F92CDB7DEB7182FB1
:1018E00072E6A72EB12CF501808180618083808112
:1018F00080628083A1E6CA2ED12CF60180818061AE
:1019000080838081806280832B834A8369830E94E5
:10191000EA0A80ED0E94250B80E00E94250B812FB2
:101920000E945B0C0E94250B6981862F0E945B0C34
:101930000E94250B4A81842F0E945B0C0E94250B7C
:1019400080E10E94250B0E94090BF50180818061D6
:101950008083808180628083F601808180618083C2
:101960008081806280830E94EA0A80ED0E94250BBC
:1019700084E00E94250B2B81822F0E945B0C0E9429
:10198000250B802F0E945B0C0E94250B8E2D0E9440
:101990005B0C0E94250B80E10E94250B0E94090B25
:1019A0000F900F900F90DF91CF911F910F91EF90BB
:1019B000DF90CF90BF90AF900895CF92EF920F93AA
:1019C0001F93CF93DF9300D00F92CDB7DEB7182FC0
:1019D000E2E6F0E0808180618083808180628083A4
:1019E000E1E6F0E080818061808380818062808395
:1019F0002B834A8369830E94EA0A80ED0E94250BAB
:101A000080E00E94250B812F0E945B0C0E94250B19
:101A10006981862F0E945B0C0E94250B4A81842FCE
:101A20000E945B0C0E94250B2B81822F0E945B0C75
:101A30000E94250B802F0E945B0C0E94250B8E2D8F
:101A40000E945B0C0E94250B8C2D0E945B0C0E9457
:101A5000250B80E10E94250B0E94090B0F900F902F
:101A60000F90DF91CF911F910F91EF90CF9008953C
:101A70000895000083B383FF0AC084FF0AC085FF76
:101A80000AC081FF0AC080FF0AC080E009C080E36D
:101A900007C083E305C084E303C082E301C081E3A0
:101AA0008093F1079091F2079817D1F49091F30782
:101AB0009A3020F49F5F9093F30716C09091F4073B
:101AC000882341F4992381F0892F90E0906110924E
:101AD000F4070895992359F48093F40790E008954A
:101AE0008093F2071092F30780E090E0089580E081
:101AF00090E00895C498C0988FB9779BFECFC09AA4
:101B00000895CF93C82F643020F4862F80550E940B
:101B10007A0D8C2F82958F70805F0E947A0D8C2FAA
:101B20008F700E947A0DCF91089588B3856088BB2D
:101B300087B3876087BBBC9AA29A82E58DB981E0A2
:101B40008EB98FEF91EEA4E081509040A040E1F774
:101B500000C00000AA9A8EEA0E947A0D83EA0E94D1
:101B60007A0D80EA0E947A0D88EC0E947A0D81E25B
:101B70000E947A0D81E80E947A0D88E10E947A0D18
:101B80008FE20E947A0D8FEA0E947A0D80E40E9413
:101B90007A0D80EB0E947A0D80E10E947A0D80E040
:101BA0000E947A0D0895C49AC0988FB9779BFECF92
:101BB000C09A08950E94D30D089585E38A95F1F7A0
:101BC000000080E00895CF9380E060E00E94810DE6
:101BD000C0E080E00E94D30DCF5FC038D1F780E035
:101BE00061E00E94810DC0E080E00E94D30DCF5FD4
:101BF000C038D1F780E062E00E94810DC0E080E053
:101C00000E94D30DCF5FC038D1F780E063E00E941F
:101C1000810DC0E080E00E94D30DCF5FC038D1F7C6
:101C2000CF9108950E94950D0E94E30DE2E1FAE044
:101C300080E090E01192019680389105D9F70895DF
:101C40008093110608956F927F928F929F92AF9228
:101C5000BF92CF92DF92EF92FF920F931F93CF9399
:101C6000DF9392E9E92E9AE0F92E00E010E021E0FE
:101C7000822E912C3401002E02C0660C771C0A942F
:101C8000E2F782E1C82E8AE0D82E560120E030E04B
:101C9000C0E0D0E0F50181915F0190E086219721BD
:101CA000009781F02115310521F48C2F602F0E94BF
:101CB000810DF701EC0FFD1F80810E94DA0D21E0FC
:101CC00030E002C020E030E02196C038D10511F7A5
:101CD0000F5F1F4F80E890E0E80EF91E04301105F9
:101CE00049F680E090E0F60111926F01019680388C
:101CF0009105C9F7DF91CF911F910F91FF90EF9060
:101D0000DF90CF90BF90AF909F908F907F906F901B
:101D100008950F931F93CF93DF93EC0180389105C3
:101D200008F045C06032710508F041C09B01E3E056
:101D300035952795EA95E1F789011695102F00272B
:101D40001795079567707070F801E80FF91FEE5648
:101D5000F54F81E090E002C0880F991F6A95E2F785
:101D60004115510521F09081982B908304C08095F6
:101D700090818923808380911106882361F08C2FC4
:101D8000622F0E94810DC00FD11FCE56D54F888182
:101D90000E94DA0D0CC0CE5ED54F81E090E002C00B
:101DA000880F991F2A95E2F79881982B9883DF91E5
:101DB000CF911F910F9108956F927F929F92AF9252
:101DC000BF92CF92DF92EF92FF920F931F93CF9328
:101DD000DF936C018B01B3E015950795BA95E1F798
:101DE000C7E0EC2EF12CE622F722642E7724E801DE
:101DF000D695DC2FCC27D795C795C80FD91FCE56BF
:101E0000D54F3FEFA32EB12CC5010E2C02C0880F79
:101E1000991F0A94E2F780959881892393010E2CEB
:101E200002C0220F331F0A94E2F7822B88838C2D85
:101E3000602F0E94810D88810E94DA0DE114F10467
:101E400041F1073011052CF5E8012196D695DC2FDC
:101E5000CC27D795C795CC0DDD1DCE56D54FC501E6
:101E60000E2C02C0959587950A94E2F7809598818B
:101E70008923930102C035952795EA94E2F7822BD6
:101E80008883602F6F5F8C2D0E94810D88810E9456
:101E9000DA0DDF91CF911F910F91FF90EF90DF90BE
:101EA000CF90BF90AF909F907F906F900895909348
:101EB000F6078093F50708959093F8078093F70746
:101EC00008952F923F924F925F926F927F929F92CE
:101ED000AF92BF92CF92DF92EF92FF920F931F9338
:101EE000CF93DF93CDB7DEB7A0970FB6F894DEBFE0
:101EF0000FBECDBF5C011B01909011061092110620
:101F00002A014BC0E091F507F091F6073097D9F11F
:101F10000680F781E02D90E0BE016F5F7F4F09954D
:101F2000C090F507D090F607EE24FF2425C0D60117
:101F30001896ED91FC911997CE010196B701A80171
:101F40000995AC01B801620D731DC3010E94890E91
:101F50000F5F1F4F05C000E010E037016A0C7B1CCB
:101F6000D6011296ED91FC91139709950817190760
:101F7000F4F20894E11CF11CD601ED91FC91099555
:101F8000E816F90644F3E091F507F091F6070190A1
:101F9000F081E02D0995A80EB91EF20181912F0163
:101FA000882309F0AFCF992011F00E94230E909260
:101FB0001106A0960FB6F894DEBF0FBECDBFDF911D
:101FC000CF911F910F91FF90EF90DF90CF90BF9036
:101FD000AF909F907F906F905F904F903F902F9029
:101FE000089586E090E0089588E090E0089588E004
:101FF00090E00895FC01EE0FFF1FE80FF91FEE0FB0
:10200000FF1FE25FFE4FA62FB72F80E090E02491E4
:102010002D930196319688309105C9F70895663061
:10202000710584F4483051056CF4860F971FFC014C
:10203000208130E002C0359527954A95E2F721705E
:10204000307002C020E030E0C901089560E875E218
:1020500080E090E00E94ED0880E090E00895EF922B
:10206000FF92CF93DF93E82EE7017E01F92EE7017F
:1020700006C088810E94BD090097D9F32196888106
:102080008823B9F7DF91CF91FF90EF900895EF92F9
:10209000FF92CF93DF93E82EE7017E01F92EE7014F
:1020A00006C088810E94BD090097D9F321968881D6
:1020B0008823B9F780E090E0DF91CF91FF90EF9017
:1020C00008958BE10E94BD090097D9F380E40E9436
:1020D000BD090097D9F380E090E008951F93182F71
:1020E0008BE10E94BD090097D9F381E60E94BD09EA
:1020F0000097D9F3812F0E94BD090097D9F380E0A2
:1021000090E01F9108951F93182F8BE10E94BD0945
:102110000097D9F384E20E94BD090097D9F3812F7B
:102120000E94BD090097D9F380E00E94BD09009785
:10213000D9F380E090E01F9108951F93182F8DE14F
:102140000E94BD090097D9F381E20E94BD09009762
:10215000D9F3812F0E94BD090097D9F380E090E068
:102160001F9108951F93182F8BE10E94BD090097BE
:10217000D9F385E40E94BD090097D9F3812F0E940D
:10218000BD090097D9F380E090E01F9108951F9357
:10219000182F8BE10E94BD090097D9F383E30E94B9
:1021A000BD090097D9F3812F0E94BD090097D9F38B
:1021B00080E090E01F910895EF92FF92CF93DF931C
:1021C000E82EE7017E01F92EE70106C08D3039F0D7
:1021D0008A3029F00E94BD0989918823B9F78AE0E5
:1021E0000E94BD0980E090E0DF91CF91FF90EF90D9
:1021F000089560E076E980E090E00E94DB091092AB
:102200000C0880E090E0089580910C08823519F068
:10221000843409F085E40895EF92FF92CF93DF9321
:10222000E82EE7017E01F92EE7010AC08D3059F052
:102230008A3049F088810E94B70A0097D9F3219625
:102240008881882399F78DE00E94B70A0097D9F317
:1022500080E090E0DF91CF91FF90EF900895DF93C1
:10226000CF930F92CDB7DEB7CE0101960E94950AAB
:102270008130910509F041C029812D3061F5E0914F
:10228000F907F091FA07E550F84F10828BEF97E0CD
:102290006CE176E043E050E00E946629009729F463
:1022A0008091FE0780930C080DC08BEF97E060E2F1
:1022B00076E042E050E00E946629009719F481E040
:1022C00080930D088BEF97E00E9453021092FA075B
:1022D0001092F90712C02A3081F08091F90790918D
:1022E000FA07803191054CF4FC01E550F84F20834A
:1022F00001969093FA078093F9070F90CF91DF91A1
:102300000895CF93DF93EC010E942F1180910D0867
:10231000813059F08FEC97E00197F1F700C0000091
:10232000219791F72FEF3FEF02C020E030E0C90185
:10233000DF91CF9108950F931F93CF93DF93082FD1
:10234000192F12C0F80180810E94B70A0097D1F3BB
:102350000F5F1F4F2196C536D10544F010920D082E
:102360008CE291E00E948111C0E0D0E0F801808110
:10237000882341F780E090E0DF91CF911F910F918A
:10238000089583E296E00E949B1110920D0888EB5D
:102390009BE00E94811108950F931F93DF93CF93C9
:1023A000CDB7DEB7A8970FB6F894DEBF0FBECDBF8E
:1023B00000D000D000D0EDB7FEB731968E010F5F90
:1023C0001F4FADB7BEB712961C930E9311972BE219
:1023D00036E033832283958384830E9474298DB7EA
:1023E0009EB706960FB6F8949EBF0FBE8DBFC8016C
:1023F0000E949B1110920D0888E59BE10E948111BB
:10240000A8960FB6F894DEBF0FBECDBFCF91DF9177
:102410001F910F91089510922C0810922B08109282
:102420001E0810921D081092440810924508109240
:102430004608089520912B0830912C08211531056C
:1024400089F49093380880933708109236081092D8
:10245000350881E090E090932C0880932B0820E0D1
:1024600030E002C02FEF3FEFC901089580912F089F
:10247000909130080E947F0810922C0810922B082F
:1024800010923808109237081092360810923508CA
:10249000089580E290E09093200880931F0880E2E6
:1024A0008093A50C0E9436120E940B128AE090E0E5
:1024B00090931408809313080895CF93DF93EC0151
:1024C00080911D0890911E0880931F08909320080A
:1024D0008093A50C10921E0810921D080E943612BF
:1024E0000E940B128091230890912408C130D105DD
:1024F00029F490939B0C80939A0C0BC02091250893
:1025000030912608AC01421B530B50939D0C409315
:102510009C0C90932608809325088EE097E00E94FB
:102520001A12009759F489E090E090931408809370
:10253000130860E070E00E948D0202C00E94491200
:10254000DF91CF910895DF93CF9300D00F92CDB755
:10255000DEB78130910569F48091230890912408B9
:1025600090939B0C80939A0C909326088093250857
:102570001EC02091230830912408409125085091D5
:1025800026088230910541F4C901841B950B909374
:102590009D0C80939C0C07C0C901841B950B9093E4
:1025A0009F0C80939E0C30932608209325088091E1
:1025B0002308909124089093A10C8093A00CCE0145
:1025C00001960E940D0C89818093A20C8A818093D0
:1025D000A30C8B818093A40C0F900F900F90CF9140
:1025E000DF910895AC019B01609127087091280844
:1025F00080911308909114080E940908089528E01A
:1026000030E03093200820931F0828E02093A50C89
:1026100020E030E040E050E920930E0830930F08AE
:1026200040931008509311081092120881309105C0
:1026300049F4809123089091240890939B0C8093F7
:102640009A0C18C040912308509124082091250825
:10265000309126088230910539F4421B530B509378
:102660009D0C40939C0C06C0421B530B50939F0C37
:1026700040939E0C0E9436120E940B128AE090E05A
:1026800090931408809313080895DF93CF9300D09C
:1026900000D000D0CDB7DEB749835A83262F6B8395
:1026A0007C838D839E8363FF02C0DF9A01C0DF9825
:1026B00024FF02C0DE9A01C0DE9825FF02C0DD9A29
:1026C00001C0DD9826FF02C0DC9A01C0DC9820FF23
:1026D00002C0969A01C0969821FF02C0979A01C045
:1026E000979827FF02C01D9A01C01D988C8181FF19
:1026F00002C01E9A01C01E9822FF04C08091620091
:10270000806803C0809162008F7780936200A7E1A8
:10271000B8E0FE01319686E001900D928150E1F71C
:1027200080E090E026960FB6F894DEBF0FBECDBFD6
:10273000CF91DF9108958AB3886F8ABB82B1806E92
:1027400082B981B3806E81BB81B3816F81BBA69852
:10275000E1E6F0E0808180688083E5E6F0E080815A
:1027600081608083E4E6F0E08081816080831F9A4D
:10277000909A949A0E9410089093160880931508D6
:102780000E941008909332088093310848EE53E07D
:1027900060E070E00E943E080E94100890932E08AE
:1027A00080932D080E9410089093300880932F0882
:1027B0000E94100890933A08809339080E941008EC
:1027C00090933C0880933B080E9410089093420825
:1027D0008093410880913B0890913C0848EE53E07B
:1027E00060E070E00E943E088091410890914208AC
:1027F00044E650E060E070E00E943E0880911A08D4
:10280000837C80931A081092140810921308809108
:1028100015089091160844EF51E060E070E00E94C6
:102820003E0880E090E0089580911308909114088C
:10283000009769F483E090E0909314088093130864
:1028400081E090E0909322088093210819C08B309A
:102850009105B1F483E090E09093140880931308FD
:1028600081E090E0909322088093210810920E0856
:1028700010920F081092100810921108109212086E
:1028800080E090E0089580911308909114080B97D0
:102890008230910580F51092200810921F08109246
:1028A00026081092250810922408109223081092EE
:1028B000940C0E940B1280911A08806C80931A0865
:1028C000809115089091160840E157E260E070E0B1
:1028D0000E943E0810920E0810920F0810921008E5
:1028E00010921108109212081092140810921308F6
:1028F00020E030E002C02FEF3FEFC9010895DF93E1
:10290000CF93CDB7DEB727970FB6F894DEBF0FBED3
:10291000CDBF8091130890911408009721F0833067
:10292000910509F059C080914D08882309F057C0DE
:102930008CE396E00E941A12009709F050C084E0E0
:1029400090E0909314088093130881E090E09093B6
:1029500051078093500790934D0780934C07109236
:10296000240810922308109226081092250881E06E
:102970008093920C1092930C10929B0C10929A0CD4
:1029800010929D0C10929C0C10929F0C10929E0C19
:102990001092A10C1092A00CCE0104960E94270C5C
:1029A0008C818093940C8D818093950C8E81809383
:1029B000960CCE0101960E940D0C89818093970C94
:1029C0008A818093980C8B818093990C1092A50C2E
:1029D000DB9A20E030E005C02EEF3FEF02C02FEF82
:1029E0003FEFC90127960FB6F894DEBF0FBECDBFEB
:1029F000CF91DF910895DF93CF93CDB7DEB72797BF
:102A00000FB6F894DEBF0FBECDBF80911308909132
:102A10001408009721F08330910509F05CC0809183
:102A20004D08882309F05AC080ED96E00E941A12E2
:102A3000009709F053C085E090E0909314088093CC
:102A4000130883E090E0909351078093500781E052
:102A500090E090934D0780934C07109224081092B9
:102A60002308109226081092250883E08093920C88
:102A700081E08093930C10929B0C10929A0C109210
:102A80009D0C10929C0C10929F0C10929E0C109218
:102A9000A10C1092A00CCE0104960E94270C8C81F0
:102AA0008093940C8D818093950C8E818093960CED
:102AB000CE0101960E940D0C89818093970C8A812A
:102AC0008093980C8B818093990C1092A50CDB9AC3
:102AD00020E030E005C02EEF3FEF02C02FEF3FEFC8
:102AE000C90127960FB6F894DEBF0FBECDBFCF91B8
:102AF000DF910895CF93DF9380911308909114088C
:102B00008430910560F584E090E0909351078093C4
:102B10005007C1E0D0E0D0934D07C0934C074091DF
:102B2000400750914107609142077091430780919F
:102B30004407909145070E944513D0933E08C093E7
:102B40003D08109224081092230886E090E09093AC
:102B5000140880931308DB9820E030E002C02EEFC9
:102B60003FEFC901DF91CF910895809113089091B3
:102B7000140886309105D1F480E190E0909320080C
:102B800080931F0880E18093A50C8AE090E09093E9
:102B900014088093130860E070E00E948D02109288
:102BA0003E0810923D0820E030E002C02FEF3FEFDA
:102BB000C901089580911308909114080895809197
:102BC000500790915107089580914C0790914D07BF
:102BD00008958091270890912808089580912308EE
:102BE00090912408089580911F08909120080895DD
:102BF000FC013197E031F10538F4EE0FFF1FEE557F
:102C0000F84F2081318102C028E336E0C9010895E0
:102C100082E99CE008958091130890911408009730
:102C200031F483E090E090931408809313080895A2
:102C30000F931F93DF93CF93CDB7DEB727970FB6D0
:102C4000F894DEBF0FBECDBF8C0101978C3091058B
:102C500008F06BC08091130890911408833091059F
:102C600009F063C082E090E0909351078093500791
:102C700010934D0700934C070930110514F481E0BF
:102C800090E090934F0780934E078AE496E00E946D
:102C90001A12009709F049C087E090E09093140859
:102CA0008093130881E090E0909328088093270890
:102CB00010922408109223081092260810922508DA
:102CC00082E08093920C0093930C10929B0C1092D4
:102CD0009A0C10929D0C10929C0C10929F0C1092CA
:102CE0009E0C1092A10C1092A00CCE0104960E9492
:102CF000270C8C818093940C8D818093950C8E8110
:102D00008093960CCE0101960E940D0C89818093D0
:102D1000970C8A818093980C8B818093990C1092E8
:102D2000A50CDB9A20E030E002C02FEF3FEFC90195
:102D300027960FB6F894DEBF0FBECDBFCF91DF91BF
:102D40001F910F9108958091130890911408873076
:102D5000910599F580E190E09093200880931F08F9
:102D600080E18093A50C10921E0810921D080E940D
:102D700036120E940B1280912308909124089093A0
:102D80009B0C80939A0C90932608809325088EE0E4
:102D900097E00E941A12009759F489E090E090930E
:102DA00014088093130860E070E00E948D0205C053
:102DB0000E9449122FEF3FEF02C020E030E0C9012E
:102DC0000895EF92FF920F931F93DF93CF9300D05C
:102DD0000F92CDB7DEB700912B0810912C0802306E
:102DE000110509F450C00330110509F4B7C00130D2
:102DF000110509F0CFC0E0913708F09138086081E3
:102E0000718180913508909136080E94F2120091EC
:102E10003708109138082091350830913608C901DB
:102E2000880F991F820F931F880F991F080F191F72
:102E3000F8013296D80112964C91518162817381CA
:102E4000848195810E944513F8016281738180E03D
:102E500090E024E630E040E050E00E94EB28AB0137
:102E6000BC0180912F08909130080E943E0880910B
:102E7000350890913608019690933608809335086E
:102E800082E090E07AC080912F08909130080E94F3
:102E90005C080097B1F480912F08909130080E944F
:102EA0007F0883E090E090932C0880932B08109289
:102EB000400810923F0880911A0880FF6BC0DC9890
:102EC00069C080911A0880FF44C020913F0830916A
:102ED00040082115310569F41093400800933F081C
:102EE0008091390890913A0844EF51E060E070E039
:102EF00019C08091390890913A0821303105A9F420
:102F00000E945C08009709F045C0DC9A10934008C5
:102F100000933F088091390890913A0848EE53E0B9
:102F200060E070E00E943E0835C00E945C08009797
:102F300089F5DC9881E090E09093400880933F0809
:102F40008091390890913A0848E853E160E070E0D8
:102F5000E9CF1092400810923F081CC080913508BC
:102F600090913608E0913708F091380860817181BE
:102F7000861797073CF481E090E090932C088093AB
:102F80002B0808C024E030E030932C0820932B0855
:102F90000E94F21280913B0890913C080E945C08CC
:102FA000009711F580913B0890913C0848EE53E062
:102FB00060E070E00E943E0880912B0890912C0800
:102FC00002978230910538F080913D0890913E083B
:102FD0008130910549F4809123089091240801964D
:102FE000909324088093230810921E0810921D08C5
:102FF00080914108909142080E945C08009709F076
:10300000DBC0809141089091420844E650E060E0C6
:1030100070E00E943E0880914B0890914C08019608
:1030200090934C0880934B088A30910524F01092BD
:103030004C0810924B0820911A0826FF14C080916A
:10304000630081FD0EC080914308873020F48F5FBC
:103050008093430808C080911D0890911E088760E6
:1030600090C01092430880914B0890914C080097B3
:1030700009F05EC023FF14C0B69B12C080914408C3
:10308000873020F48F5F809344080CC080911D0826
:1030900090911E08816090931E0880931D0802C0C5
:1030A00010924408822F8073B9F0803119F4B599D9
:1030B00005C012C0803291F4B5990EC080914508C8
:1030C000873020F48F5F8093450808C080911D08E9
:1030D00090911E08826055C01092450822FF10C0D2
:1030E000819B0EC080914608853020F48F5F8093CD
:1030F000460808C080911D0890911E08836041C059
:103100001092460880911B0882FF10C09E9B0EC043
:1031100080914708853020F48F5F8093470808C06E
:1031200080911D0890911E0889602BC0109247085D
:1031300080911A0887FF3AC0009B03C0109248088C
:103140000EC080914808853020F48F5F8093480836
:1031500006C080911D0890911E08846012C0019BDA
:1031600003C01092490812C080914908853020F4AC
:103170008F5F809349080AC080911D0890911E08B6
:10318000856090931E0880931D0816C0029912C096
:1031900080914A08853020F48F5F80934A080CC0E4
:1031A00080911D0890911E088660EBCF1092480810
:1031B0001092490810924A080091130810911408BF
:1031C0000730110509F405C108301105E4F4023097
:1031D000110509F46EC00330110544F40115110501
:1031E00079F10130110509F086C346C0043011059C
:1031F00009F4A3C0043011050CF484C00530110596
:1032000009F079C3A2C10A30110509F405C20B30D7
:1032100011054CF40830110509F428C109301105D5
:1032200009F069C3CFC10C30110509F40DC30C308E
:1032300011050CF4F3C20D30110509F05CC31EC377
:1032400080911508909116080E945C08009709F07B
:1032500052C380911508909116080E947F088091B2
:103260004D08882309F0F5C281E090E0909314089E
:1032700080931308DB9A14C080911508909116086A
:103280000E945C08009709F036C380911A08806C90
:1032900080931A0882E090E09093140880931308BA
:1032A000809115089091160844EF51E060E070E0BD
:1032B000CCC180911508909116080E945C08009777
:1032C00079F480911508909116080E947F0883E098
:1032D00090E090931408809313080E947F140BC30E
:1032E00080911D0890911E08009709F404C38091F5
:1032F0001508909116080E947F0880911D089091F2
:103300001E080CC080914D08882309F0A2C280914C
:103310001D0890911E08009709F4EDC290932008B3
:1033200080931F088CE090E090931408809313081A
:1033300080E090E0A0E0B0E996C280912B089091E7
:103340002C0884309105A1F40E940B1280911A0878
:10335000806C80931A0883E090E090931408809327
:10336000130881E090E09093220880932108CCC05C
:1033700080914D08882309F018C180911D08909113
:103380001E08009709F4B7C281E090E090932208EC
:10339000809321080E94361280911D0890911E088A
:1033A00080931F08909320088093A50C8091230898
:1033B0009091240890939B0C80939A0C90932608EC
:1033C000809325088AE090E0909314088093130876
:1033D00048C080912B0890912C088430910509F009
:1033E000E0C00E940B12E0902708F090280880911E
:1033F0004C0790914D07E816F9069CF48AE496E094
:103400000E941A12009709F058C0109314080093F4
:1034100013080894E11CF11CF0922808E092270898
:103420006AC2809123089091240890939B0C80930A
:103430009A0C909326088093250880ED96E00E94D0
:103440001A120097D1F588E090E0909314088093C9
:10345000130881E090E090932A088093290888E07F
:1034600090E060E070E00E948D0245C280912B08E0
:1034700090912C088430910509F052C00E940B12E3
:10348000E0902908F0902A0880914E0790914F070C
:10349000E816F906ACF480ED96E00E941A12009747
:1034A00061F410931408009313080894E11CF11CB4
:1034B000F0922A08E09229081EC20E9449121BC2FB
:1034C00010922C0810922B088BE090E09093140837
:1034D0008093130880E090E0A0E0B0E880930E08AD
:1034E00090930F08A0931008B0931108109212083F
:1034F00080912D0890912E0840E65AEE60E070E031
:103500000E943E0882E090E00E94A312809113087E
:103510009091140861E070E00E948D02DB98EBC18D
:1035200080914D08882329F082E090E00E94FF12EC
:10353000E2C180911D0890911E08009709F4DBC13B
:1035400082E090E00E945D12D6C180912B0890919C
:103550002C088430910529F510922C0810922B0824
:103560008BE090E0909314088093130880E090E043
:10357000A0E0B0E880930E0890930F08A093100885
:10358000B09311081092120880912D0890912E0886
:1035900040E65AEE60E070E00E943E0881E090E074
:1035A000B3CF80914D08882319F081E090E0BECF21
:1035B00080911D0890911E08009709F49CC181E03C
:1035C00090E0C0CF80912B0890912C088430910519
:1035D000D9F410922C0810922B088CE090E0909374
:1035E00014088093130880E090E0A0E0B0E9809395
:1035F0000E0890930F08A0931008B0931108109232
:10360000120883E090E080CF80914D08882309F470
:1036100072C183E090E08ACF8091330890913408A2
:103620000097B1F480911A08837C80931A0881E096
:1036300090E0909334088093330880912F08909104
:10364000300848EE53E060E070E00E943E0853C14D
:103650008130910509F074C080912F089091300855
:103660000E945C08009709F046C180912F08909154
:10367000300848EE53E060E070E00E943E08809120
:10368000190886FF04C08F7B8093190816C080FF3D
:1036900005C08E7F8093190896982DC181FF05C0C3
:1036A0008D7F80931908979826C190911A0890FFF2
:1036B00006C0892F8E7F80931A08DC981CC182FF78
:1036C0000BC0809119088B7F80931908809162004C
:1036D0008F77809362000FC187FF07C08091190820
:1036E0008F77809319081D9806C191FF07C08091BC
:1036F0001A088D7F80931A081E98FDC083FF07C0AB
:1037000080911908877F80931908DF98F4C084FF9F
:1037100007C0809119088F7E80931908DE98EBC04E
:1037200085FF07C0809119088F7D80931908DD9867
:10373000E2C082E090E09093340880933308DBC0CD
:103740008230910509F0D7C080912F089091300800
:103750000E945C08009709F0CEC02091500730917C
:10376000510780912F08909130082430310521F5C0
:103770000E947F08109234081092330880911F082D
:103780009091200880319105A9F4809113089091BF
:10379000140860E070E00E948D02DB9880911A08A6
:1037A000806C80931A0883E090E0909314088093D3
:1037B0001308A1C0DB984DC00E947F081092340806
:1037C00010923308CE0101960E940D0C89818093DE
:1037D000A20C8A818093A30C8B818093A40C8CE033
:1037E00090E0909314088093130880E090E0A0E0AC
:1037F000B0E980930E0890930F08A0931008B0933F
:103800001108109212088091230890912408909337
:10381000A10C8093A00C8CE090E07CCE80912D08D0
:1038200090912E080E945C08009771F480912D08F9
:1038300090912E080E947F0810920E0810920F0897
:10384000109210081092110880914D08882309F4F5
:1038500052C08DE090E0909314088093130880E0AC
:1038600090E0A0E0B8EA80930E0890930F08A09330
:103870001008B0931108109212083DC080914D08B5
:103880008823C9F580912108909122080097A1F41E
:103890001092140810921308809115089091160840
:1038A00044EF51E060E070E00E943E0880911A0809
:1038B0008F7380931A080BC080911A08806C8093D4
:1038C0001A0883E090E090931408809313081092F4
:1038D0000E0810920F081092100810921108109202
:1038E00012081092200810921F08109224081092BB
:1038F00023080E940B1280913108909132080E9497
:103900005C08009709F093C08091310890913208CB
:1039100044E650E060E070E00E943E0880910E08AE
:1039200090910F08A0911008B09111080090120812
:1039300004C0B695A795979587950A94D2F781709C
:103940009070009721F0809165008E7F03C0809178
:103950006500816080936500809112088F5F80937D
:103960001208803210F01092120880914D088823BE
:1039700081F48091630083FF1AC080914E08982FD4
:103980009F5F90934E088630A0F081E080934D08B1
:103990000EC08091630083FD0AC080914E08982F6D
:1039A0009F5F90934E08863020F010924D08109241
:1039B0004E0880914F08909150088930910534F459
:1039C00001969093500880934F0804C010925008BD
:1039D00010924F0880911308909114088930910536
:1039E00034F48430910504F597FF0FC01DC08B306F
:1039F000910559F08C30910524F489309105A1F49A
:103A000006C08E30910584F404C01F9A0EC09098B1
:103A10000EC01F9A909A80914F089091500885305F
:103A2000910524F4949803C01F98909A949A80E08A
:103A300090E00F900F900F90CF91DF911F910F9119
:103A4000FF90EF90089508958F929F92AF92BF924A
:103A5000CF92DF92EF92FF920F931F9383E087B98B
:103A600080E88FBF87ED86B9349BFECF64B175B116
:103A7000882777FD8095982F0E946F26D62EE72EF7
:103A80008C01912F2DEC3CEC4CEC5DE30E94D02599
:103A900087FF06C03DECD32E2CECE22E0CEC1DE390
:103AA0006D2D7E2D802F912F20E030EC4FE754E4D8
:103AB0000E94D42520E030E040EA50E40E946827CC
:103AC000D62EE72E8C01912F2DEC3CEC4CE950E4E6
:103AD0000E941F27181634F49DECD92E8CECE82E8A
:103AE0000CE910E46D2D7E2D802F912F20E030E425
:103AF0004CE955E40E9468274B015C0160E070E0EE
:103B000080EA90E42D2D3E2D402F512F0E946B25F1
:103B10009B01AC01C501B4010E94D42520E030E036
:103B20004AE754E40E94D4250E9428277B018C0197
:103B300020E030E040E450E40E94CB27D62EC72E90
:103B4000B82EA92EC801B7012091C6073091C7072A
:103B50004091C8075091C9070E9468272091CA0761
:103B60003091CB074091CC075091CD070E946C2536
:103B70007B018C01A6019501652F742F832F922F55
:103B80002091C2073091C3074091C4075091C507E7
:103B90000E9468279B01AC01C801B7010E946C25F7
:103BA0009B01AC0160E070E080E89FE30E94D425B7
:103BB00023E333E948E853E40E946B250E943C2646
:103BC000CB011F910F91FF90EF90DF90CF90BF90AE
:103BD000AF909F908F900895CF93DF93CDB7DEB7CE
:103BE00065970FB6F894DEBF0FBECDBF1092CF071A
:103BF0001092CE071092D1071092D00781E090E08A
:103C00009093D3078093D2071092D5071092D407D0
:103C10009093D7078093D607139A0E94F9100E94B9
:103C2000D90A0E9496080E949B130E9426100E94A7
:103C3000120E82E196E00E94570F0E9410089093A6
:103C4000D9078093D80744EF51E060E070E00E940C
:103C50003E080E9410089093DB078093DA070E94C9
:103C600010089093DD078093DC0744E650E060E0A5
:103C700070E00E943E087894CE010B960E94270CBB
:103C8000CE0104960E940D0C8B858093DE078C85F7
:103C90008093DF078D858093E0078C818093E10717
:103CA0008D818093E2078E818093E307F89484E509
:103CB00098E060E070E04AE050E00E94B42B789415
:103CC00080915408813A99F085E598E061E271E0CD
:103CD0000E945F2981EA80935408F89484E598E073
:103CE00060E070E04AE050E00E94C42B789487E2E4
:103CF00091E00E949B1185E598E00E949B118BE268
:103D000091E00E949B1181E598E060E070E00E94E4
:103D1000320280915108813A09F4CFC681E598E0DA
:103D200061E070E00E94320280915108813A09F40A
:103D3000CFC681EA8093510810925308109252081E
:103D400080E090E00E94410281E090E00E94410208
:103D500086E7682E88E0782E98E1292E312C260CF3
:103D6000371C922C832C2BE9422E22E0522E0E94EB
:103D7000E1160E94DA159093D5078093D4078091BD
:103D8000D8079091D9070E945C080097A1F4809110
:103D9000D8079091D90744EF51E060E070E00E94AD
:103DA0003E0883B198E0892783B981E090E0909341
:103DB000D7078093D6078091DC079091DD070E949A
:103DC0005C08009781F48091DC079091DD0742E068
:103DD00050E060E070E00E943E080E94390D8C01C6
:103DE0000E942F1102C000E010E0C80180702091F5
:103DF000DA073091DB07009709F0E6C101151105DC
:103E000009F4E2C1C90148E55BE160E070E00E94AD
:103E10003E082091D4073091D5072330310509F0B1
:103E2000B3C18091CE079091CF07009781F5013300
:103E300039F48091E4078530A1F50E947A1524C0F9
:103E4000003319F481E090E07EC1023311F481E087
:103E500007C0033361F48091E407813021F482E0EC
:103E60008093E407C4C1833079F484E0F9CF04334C
:103E700009F0BDC18091E407823011F483E0F0CFF6
:103E8000843011F485E0ECCF1092E407B0C18130AA
:103E9000910509F04BC00133E9F41092CF0710925D
:103EA000CE078091D2079091D3078130910519F404
:103EB00081E090E005C08230910529F482E090E035
:103EC0000E94181694C18330910509F090C10E9498
:103ED0007F148DC1003309F45BC0033381F48091FA
:103EE000D2079091D3078330910514F4019619C03D
:103EF0008330910509F07BC181E090E012C004336A
:103F000009F075C18091D2079091D3078230910555
:103F100014F0019706C08130910509F068C183E073
:103F200090E09093D3078093D20761C182309105CE
:103F300079F4003319F484E090E005C1043309F00A
:103F400056C13093CF072093CE0781E090E00EC09A
:103F50008330910509F0EDC00033E9F48091D0077A
:103F60009091D1078630910534F401969093D10752
:103F70008093D0073CC180E06091E2074091E10767
:103F80002091E0070091DF07E090DE070E94620CBD
:103F900082E090E0D8C0033309F059C08091D00787
:103FA0009091D1078330910539F18430910544F423
:103FB0008130910581F08230910509F018C112C05D
:103FC0008530910571F18530910504F186309105B8
:103FD00009F00DC131C08091DE07833608F007C1BA
:103FE0008F5F5CC08091DF078F5F8093DF078D302C
:103FF00008F4FDC081E05DC08091E0078F5F809391
:10400000E007803208F4F3C081E065C08091E107E9
:104010008F5F8093E107883108F4E9C01092E107CF
:10402000E6C08091E2078F5F8093E2078C3308F44B
:10403000DEC01092E207DBC08091E3078F5F8093C0
:10404000E3078C3308F4D3C01092E307D0C00433E5
:1040500009F0CDC08091D0079091D10783309105B0
:1040600091F18430910544F48130910589F08230DA
:10407000910509F0BCC015C08530910509F441C017
:1040800085309105A4F18630910509F0B0C045C096
:104090008091DE07882309F4AAC081508093DE074F
:1040A000A6C08091DF0781508093DF07882321F429
:1040B0008CE08093DF079BC08091E1078D3008F48E
:1040C00096C08CE011C08091E00781508093E0079A
:1040D000882321F48FE18093E00789C08091E10774
:1040E000803208F484C08FE18093E10780C0809122
:1040F000E10781508093E107883108F478C087E1B7
:10410000F3CF8091E20781508093E2078C3308F46B
:104110006EC08BE38093E2076AC08091E3078F5FF4
:104120008093E3078C3308F462C08BE38093E3074A
:104130005EC08430910561F4003309F1043309F065
:1041400056C085E090E09093CF078093CE074FC094
:104150008530910509F04BC0003389F0033369F4D1
:10416000109253081092520880E090E00E944102A1
:1041700081E090E00E94410202C00433C1F5109238
:10418000CF071092CE0733C02115310529F4003333
:1041900071F50E9414142BC02730310529F4023325
:1041A00031F50E94A31607C02630310501F5023310
:1041B000F1F40E94B5150097D1F40E94DA1590939E
:1041C000D5078093D40713C0C9010E945C080097EB
:1041D000A1F48091DA079091DB070E947F0810928A
:1041E000CF071092CE071092D1071092D00781E02E
:1041F00090E09093D7078093D6078091D60790914F
:10420000D707009709F4B3CD0E94EE156CE370E078
:104210000E942A29162F072FF82EE92E6801570130
:104220008EE598E06DE271E00E945F2986E798E0F4
:104230006DE271E00E945F298EE898E06DE271E026
:104240000E945F2986EA98E06DE271E00E945F2992
:104250008091D4079091D5078630910509F443C326
:1042600087309105BCF48230910509F466C0833033
:1042700091053CF4009759F18130910509F0F8C39C
:104280003DC08430910509F420C2853091050CF0C1
:104290000BC36AC08A30910509F47DC38B30910548
:1042A0004CF48830910509F49AC2893091050CF0DC
:1042B0009DC24BC28C30910509F474C38C309105BA
:1042C0000CF433C38D30910509F0D2C3B0C38EE531
:1042D00098E060E070E042E451E00E9428028EE540
:1042E00098E06CE070E04AE451E00E94280286E722
:1042F00098E060E070E043E551E016C08EE598E09C
:1043000060E070E042E451E00E9428028EE598E00F
:104310006AE070E04BE651E00E94280286E798E0F0
:1043200060E070E046E751E00E9428028EE898E0E5
:1043300060E070E040E651E099C38EE598E060E00F
:1043400070E042E451E00E9428028EE598E06AE0C5
:1043500070E04BE651E00E94280286E798E060E0BA
:1043600070E048E851E0E0CF8091CE079091CF0710
:10437000009731F58EE598E060E070E043E951E0A8
:104380000E9428020E940411809365088EE598E03F
:104390006EE070E0AE01415F5F4F0E94280286E749
:1043A00098E060E070E049E951E023C08230910577
:1043B00071F58EE898E06BEB71E00E945F2958C3BD
:1043C0008130910569F58EE598E060E070E042E4A7
:1043D00051E00E9428028EE598E06FE070E045EE23
:1043E00051E00E94280286E798E060E070E04BEE22
:1043F00051E00E9428028091D2079091D30781302A
:104400009105A1F68EE898E066EA71E0D6CF833098
:10441000910509F02DC38EE898E060ED71E0CDCFF5
:104420008230910509F05FC0CE0107960E94270CEB
:10443000CE0101960E940D0C1F811093DE070885A6
:104440000093DF07F984F092E007E980E092E1074A
:10445000DA80D092E207CB80C092E3078EE598E045
:1044600060E070E042E451E00E9428028EE598E0AE
:1044700060E170E04DEF51E00E94280286E798E08D
:1044800060E070E042E052E00E9428022DB73EB7A3
:10449000205130400FB6F8943EBF0FBE2DBFEDB790
:1044A000FEB73196ADB7BEB711969C921197129692
:1044B0008C9227E032E033832283812F90E0805377
:1044C000984F9583848306831782F0861186E2864F
:1044D0001386D4861586C68617860E9474298DB7E2
:1044E0009EB74096CBC08330910509F090C08EE511
:1044F00098E060E070E042E451E00E9428028EE51E
:1045000098E06FE070E045EE51E00E94280286E7F7
:1045100098E060E070E046E252E00E942802ADB709
:10452000BEB750970FB6F894BEBF0FBEADBFEDB784
:10453000FEB7319611969C92119712968C9227E0B5
:1045400032E0338322838091DE0790E08053984FDE
:10455000958384838091DF07868317828091E007AB
:10456000808711868091E107828713868091E20718
:10457000848715868091E307868717860E947429B1
:104580008DB79EB740960FB6F8949EBF0FBE8DBFF5
:104590008091D0079091D1078330910511F184303B
:1045A000910544F48130910581F08230910509F044
:1045B0005FC212C085309105F1F085309105B4F0ED
:1045C0008630910509F054C21BC086EA98E061E08C
:1045D00070E041E352E04AC286EA98E066E070E0AB
:1045E00013C086EA98E069E070E00EC086EA98E0C1
:1045F0006CE070E009C086EA98E06FE070E004C00B
:1046000086EA98E062E170E046E352E02FC284302F
:104610009105D1F58EE598E060E070E042E451E06C
:104620000E9428028EE598E06AE070E049E352E0DB
:104630000E94280286E798E060E070E044E452E0DF
:104640000E94280200D000D000D0EDB7FEB731960E
:10465000ADB7BEB711969C92119712968C9225E534
:1046600032E03383228380915208909153089583DE
:1046700084830E9474298DB79EB706960FB6F8946E
:104680009EBF0FBE8DBFF4C18530910509F0F0C10A
:104690008EE598E060E070E042E451E00E9428027C
:1046A0008EE598E06FE070E045EE51E00E94280250
:1046B00086E798E061E070E04AE652E00E94280256
:1046C0008EE898E06DE772E078CE8EE598E060E0E5
:1046D00070E041E952E00E9428028EE598E06EE029
:1046E00070E0AE01415F5F4F0E942802ADB7BEB7D8
:1046F00018970FB6F894BEBF0FBEADBFEDB7FEB7AB
:10470000319612963C922E921197538242821483D4
:104710000583F682E7820E9474292DB73EB7285F91
:104720003F4F0FB6F8943EBF0FBE2DBF8EE598E009
:1047300060E070E041E952E00E94280286E798E0DC
:1047400060E070E041EB52E0E5C08EE598E060E0AB
:1047500070E045EC52E00E9428028EE598E06EE0A1
:1047600070E0AE01415F5F4F0E9428020E94F31586
:10477000009711F50E94E9158C010E94E415ADB770
:10478000BEB718970FB6F894BEBF0FBEADBFEDB75A
:10479000FEB7319612967C926E9211972DEC32E014
:1047A0003383228315830483978386830E9474292D
:1047B0008DB79EB708965BC00E94F3150E94F8154E
:1047C00000D000D000D0EDB7FEB73196ADB7BEB780
:1047D00012967C926E92119724EE32E03FC08EE5E5
:1047E00098E060E070E043EF52E006C08EE598E0AC
:1047F00060E070E040E253E00E9428028EE598E01D
:104800006EE070E0AE01415F5F4F0E9428020E949F
:10481000F315009789F40E94E41500D000D000D071
:10482000EDB7FEB73196ADB7BEB712967C926E92D9
:1048300011972AEF32E012C00E94F3150E94F8157A
:1048400000D000D000D0EDB7FEB73196ADB7BEB7FF
:1048500012967C926E92119720E133E0338322838B
:10486000958384830E9474298DB79EB706960FB6F0
:10487000F8949EBF0FBE8DBFADB7BEB718970FB6E9
:10488000F894BEBF0FBEADBFEDB7FEB7319611961F
:104890009C92119712968C92129753824282D482E4
:1048A000C582B682A782B7C08EE598E060E070E06E
:1048B00043EF52E00E9428028EE598E06EE070E03F
:1048C000AE01415F5F4F0E9428020E94F3150097DE
:1048D00009F0B2CF86E798E060E070E04EE253E086
:1048E0000E942802C9CF8EE598E060E070E04FE3B7
:1048F00053E00E9428028EE598E06EE070E0AE0181
:10490000415F5F4F0E94280286E798E060E070E018
:1049100047E453E00E9428028DB79EB708970FB670
:10492000F8949EBF0FBE8DBF67C08EE598E060E033
:1049300070E047E553E00E9428028EE598E06EE0C3
:1049400070E0AE01415F5F4F0E9428020E94DF15B8
:104950008130910529F486E798E060E673E007C0AE
:104960008330910539F486E798E065E773E00E94AB
:104970005F2982CF0E94E41500D000D000D0EDB7AF
:10498000FEB73196ADB7BEB712967C926E92119774
:104990002AE833E063CF8EE598E060E070E040EA1B
:1049A00053E006C08EE598E060E070E049EA53E02D
:1049B0000E9428028EE598E06EE070E0AE01415F53
:1049C0005F4F0E9428020E94F3150E94F81500D044
:1049D00000D000D0EDB7FEB73196ADB7BEB7129696
:1049E0007C926E92119720E133E03383228395838A
:1049F00084830E94742900D0EDB7FEB73196ADB71D
:104A0000BEB712963C922E92119753824282148323
:104A10000583F682E7820E9474292DB73EB7285F8E
:104A20003F4F0FB6F8943EBF0FBE2DBF21C08EE59D
:104A300098E060E070E04FEA53E00E9428028EE5C3
:104A400098E06EE070E0AE01415F5F4F0E94280287
:104A500086E798E060E070E047EB53E00E942802B0
:104A60008EE898E060E070E041EC53E00E9428029C
:104A700088E090E060E070E04EE558E00E94610F51
:104A800088E090E068E070E046E758E00E94610F3F
:104A900088E090E060E170E04EE858E00E94610F2D
:104AA00088E090E068E170E046EA58E00E94610F1B
:104AB0001092D7071092D6075AC981E090E00E9461
:104AC0004102CE010F9661E070E00E94320240C9BF
:104AD00080E090E03BC95058BB27AA270ED075C193
:104AE00066D130F06BD120F031F49F3F11F41EF409
:104AF0005BC10EF4E095E7FB51C1E92F77D180F35C
:104B0000BA17620773078407950718F071F49EF5CA
:104B10008FC10EF4E0950B2EBA2FA02D0B01B90119
:104B200090010C01CA01A0011124FF27591B99F023
:104B3000593F50F4503E68F11A16F040A22F232F2F
:104B4000342F4427585FF3CF469537952795A7957F
:104B5000F0405395C9F77EF41F16BA0B620B730B26
:104B6000840BBAF09150A1F0FF0FBB1F661F771F97
:104B7000881FC2F70EC0BA0F621F731F841F48F44C
:104B8000879577956795B795F7959E3F08F0B3CFD2
:104B90009395880F08F09927EE0F979587950895BC
:104BA000D9D008F481E008950CD00FC107D140F0AE
:104BB000FED030F021F45F3F19F0F0C0511139C13F
:104BC000F3C014D198F39923C9F35523B1F3951B7E
:104BD000550BBB27AA2762177307840738F09F5F1E
:104BE0005F4F220F331F441FAA1FA9F333D00E2E8D
:104BF0003AF0E0E830D091505040E695001CCAF7FA
:104C000029D0FE2F27D0660F771F881FBB1F2617BE
:104C100037074807AB07B0E809F0BB0B802DBF0191
:104C2000FF2793585F4F2AF09E3F510568F0B6C0AA
:104C300000C15F3FECF3983EDCF38695779567956E
:104C4000B795F7959F5FC9F7880F911D9695879542
:104C500097F90895E1E0660F771F881FBB1F621761
:104C600073078407BA0720F0621B730B840BBA0B1F
:104C7000EE1F88F7E095089504D06894B111D9C06B
:104C80000895BCD088F09F5790F0B92F9927B7515D
:104C9000A0F0D1F0660F771F881F991F1AF0BA9500
:104CA000C9F712C0B13081F0C3D0B1E00895C0C0DF
:104CB000672F782F8827B85F39F0B93FCCF38695F6
:104CC00077956795B395D9F73EF490958095709553
:104CD00061957F4F8F4F9F4F0895E89409C097FBD0
:104CE0003EF490958095709561957F4F8F4F9F4FC3
:104CF0009923A9F0F92F96E9BB279395F695879507
:104D000077956795B795F111F8CFFAF4BB0F11F4C9
:104D100060FF1BC06F5F7F4F8F4F9F4F16C0882370
:104D200011F096E911C0772321F09EE8872F762FA6
:104D300005C0662371F096E8862F70E060E02AF0E7
:104D40009A95660F771F881FDAF7880F96958795D3
:104D500097F90895990F0008550FAA0BE0E8FEEFA8
:104D600016161706E807F907C0F012161306E4072F
:104D7000F50798F0621B730B840B950B39F40A2628
:104D800061F0232B242B252B21F408950A2609F406
:104D9000A140A6958FEF811D811D089597F99F670A
:104DA00080E870E060E008959FEF80EC08950024B3
:104DB0000A941616170618060906089500240A9480
:104DC00012161306140605060895092E0394000C06
:104DD00011F4882352F0BB0F40F4BF2B11F460FF95
:104DE00004C06F5F7F4F8F4F9F4F089557FD9058BE
:104DF000440F551F59F05F3F71F04795880F97FB9F
:104E0000991F61F09F3F79F0879508951216130658
:104E10001406551FF2CF4695F1DF08C01616170687
:104E20001806991FF1CF86957105610508940895BC
:104E3000E894BB2766277727CB0197F908958ADF87
:104E400008F48FEF08950EF023C1AECF6894A6CF7B
:104E5000D5DFC8F39923D1F3C6F3DF93CF931F9324
:104E60000F93FF92C92FDD2788232AF02197660F21
:104E7000771F881FDAF720E030E040E85FEB9FE320
:104E8000883920F0803E30F021968F7725DEECE8DF
:104E9000F0E003C021DEE9EBF0E008D18B01BE01B8
:104EA000EC01FB2E6F5771097595771F880B990BD5
:104EB00016DF28E132E741E35FE316D0AF2D98011A
:104EC000AE01FF900F911F91CF91DF9116DE7DCF44
:104ED0000BD07BCF6CDF28F071DF18F0952309F041
:104EE0005DCF62CF1124A5CF81DFA0F3959FD1F3D1
:104EF000950F50E0551F629FF001729FBB27F00D88
:104F0000B11D639FAA27F00DB11DAA1F649F6627DC
:104F1000B00DA11D661F829F2227B00DA11D621F2B
:104F2000739FB00DA11D621F839FA00D611D221FE5
:104F3000749F3327A00D611D231F849F600D211DC9
:104F4000822F762F6A2F11249F5750408AF0E1F06C
:104F500088234AF0EE0FFF1FBB1F661F771F881FB5
:104F600091505040A9F79E3F510570F017CF61CF87
:104F70005F3FECF3983EDCF3869577956795B795A0
:104F8000F795E7959F5FC1F7FE2B880F911D9695CA
:104F9000879597F90895FA01EE0FFF1F30962105C6
:104FA000310599F16115710561F48038BFE39B0704
:104FB00049F168949038810561F08038BFEF9B0714
:104FC00041F0992342F5FF3FE1053105210511F13B
:104FD000E8940894E795D901AA2329F4AB2FBE2FB2
:104FE000F85FD0F310C0FF5F70F4A695E0F7F739D3
:104FF00050F019F0FF3A38F49F779F930CD00F9040
:1050000007FC905808953EF0CFCE60E070E080E855
:105010009FE308954FE79F775F934F933F932F93BD
:1050200017DF2F913F914F915F9152DF05C019F427
:105030000EF0B4CEFDCEB8CEE1DEC8F39638C0F7A0
:1050400007F80F92E8942BE33AEA48EB5FE74EDF6C
:105050000F920F920F924DB75EB70F9289D0E6EE86
:10506000F0E024D04F915F91EF91FF91E595EE1F15
:10507000FF1F49F0FE57E0684427EE0F441FFA95E2
:10508000E1F74195550B40D00F9007FE34C00895CD
:105090009F3F31F0915020F4879577956795B795AC
:1050A000880F911D9695879597F90895DF93CF9373
:1050B0001F930F93FF92EF92DF927B018C01689414
:1050C00005C0DA2EEF0110DFFE01E894A5912591CD
:1050D000359145915591AEF3EF010FDDFE0197013A
:1050E000A801DA9479F7DF90EF90FF900F911F916C
:1050F000CF91DF9108959B01AC0160E070E080E802
:105100009FE352CD4BCEC4CF79DEE8F39923D9F398
:10511000940F511DBBF39150504094F059F08823E7
:1051200032F0660F771F881F91505040C1F79E3FA5
:10513000510544F7880F911D9695879597F9089525
:105140005F3FACF0983E9CF0BB27869577956795BE
:10515000B79508F4B1609395C1F7BB0F58F711F4F8
:1051600060FFE8CF6F5F7F4F8F4F9F4FE3CF61CEE0
:10517000FA01DC01AA0FBB1F9B01AC01BF5728F449
:1051800022273327442750781FC0B75188F4AB2F0C
:105190000024469537952795011CA395D2F300204E
:1051A00069F0220F331F441FB395DAF30DD093CC6F
:1051B00061307105A0E88A07B94630F49B01AC0163
:1051C0006627772788279078309621F020833183CF
:1051D000428353830895629FD001739FF001829FA1
:1051E000E00DF11D649FE00DF11D929FF00D839F76
:1051F000F00D749FF00D659FF00D9927729FB00D13
:10520000E11DF91F639FB00DE11DF91FBD01CF0125
:1052100011240895991B79E004C0991F961708F08E
:10522000961B881F7A95C9F780950895AA1BBB1B0A
:1052300051E107C0AA1FBB1FA617B70710F0A61B96
:10524000B70B881F991F5A95A9F780959095BC01B7
:10525000CD01089597FB092E07260AD077FD04D0CB
:10526000E5DF06D000201AF4709561957F4F089510
:10527000F6F7909581959F4F0895A1E21A2EAA1BEB
:10528000BB1BFD010DC0AA1FBB1FEE1FFF1FA217F6
:10529000B307E407F50720F0A21BB30BE40BF50BF3
:1052A000661F771F881F991F1A9469F7609570957C
:1052B000809590959B01AC01BD01CF010895FB0144
:1052C000DC0101900D920020E1F70895FB01DC0163
:1052D0004150504030F08D910190801919F4002018
:1052E000B9F7881B990B08950F931F93DF93CF9302
:1052F000CDB7DEB72E970FB6F894DEBF0FBECDBF89
:105300000D891E8986E08C831A8309838FEF9FE7BE
:105310009E838D839E01275E3F4FCE0101966F894C
:10532000788DA9010E94A429EF81F885E00FF11F73
:1053300010822E960FB6F894DEBF0FBECDBFCF9170
:10534000DF911F910F9108952F923F924F925F929C
:105350006F927F928F929F92AF92BF92CF92DF9285
:10536000EF92FF920F931F93DF93CF93CDB7DEB7EA
:105370002C970FB6F894DEBF0FBECDBF6C011B019A
:105380008A01FC0117821682838181FFD1C12E011F
:105390000894411C511CF6019381F10193FD859104
:1053A00093FF81911F01882309F4BEC1853239F42E
:1053B00093FD859193FF81911F01853229F490E03F
:1053C000B6010E94F12BE7CFEE24FF2420E020322B
:1053D000B0F48B3269F08C3228F4803251F0833291
:1053E00071F40BC08D3239F0803349F421602CC048
:1053F0002260246029C0286027C0206125C027FDC5
:105400002CC0382F30533A3098F426FF08C08E2D28
:10541000880FE82EEE0CEE0CE80EE30E15C08F2D73
:10542000880FF82EFF0CFF0CF80EF30E20620CC054
:105430008E3221F426FD78C1206406C08C3611F42A
:10544000206802C0883649F4F10193FD859193FFED
:1054500081911F01882309F0BACF982F955493307A
:1054600018F09052933028F40C5F1F4FFFE3F9833C
:105470000DC0833631F0833771F0833509F060C099
:1054800022C0F801808189830E5F1F4F420171E0C5
:10549000A72EB12C16C062E0662E712C600E711E14
:1054A000F8018080918026FF03C06E2D70E002C05D
:1054B0006FEF7FEFC4012C870E94E62B5C01830114
:1054C0002C852F7717C052E0652E712C600E711E4F
:1054D000F8018080918026FF03C06E2D70E002C02D
:1054E0006FEF7FEFC4012C870E94DB2B5C012C85C2
:1054F0002068830123FD20C008C080E290E0B6014F
:105500002C870E94F12BFA942C858F2D90E0A81601
:10551000B90698F311C0F40127FD859127FF819109
:105520004F0190E0B6012C870E94F12B2C85F110E1
:10553000FA940894A108B108A114B10461F7F1C06C
:10554000843611F0893649F527FF08C0F8016081DB
:105550007181828193810C5F1F4F09C0F8016081C6
:105560007181882777FD8095982F0E5F1F4F4FE63A
:10557000B42EB22297FF09C09095809570956195E1
:105580007F4F8F4F9F4FF0E8BF2AA2012AE030E003
:105590000E941D2C782E741845C0853731F43FEEDB
:1055A000B32EB2222AE030E025C099EFB92EB22204
:1055B0008F36C1F0803720F4883509F0B5C00DC0B2
:1055C000803721F0883709F0AFC002C020E1B22A4D
:1055D000B4FE0BC084E0B82A08C0B4FE09C0E6E0FF
:1055E000BE2A06C028E030E005C020E130E002C05D
:1055F00020E132E0B7FE08C0F8016081718182814C
:1056000093810C5F1F4F07C0F8016081718180E0BA
:1056100090E00E5F1F4FA2010E941D2C782E74187F
:10562000FFE7BF22B6FE0BC02EEFB2227E1438F485
:10563000B4FE07C0B2FC05C08FEEB82202C0A72C92
:1056400001C0AE2C8B2D90E0B4FE0DC0FE01E70D25
:10565000F11D2081203319F4E9EEBE2209C0A39484
:10566000B2FE06C004C086789070009709F0A3943B
:105670008B2C9924B3FC14C0B0FE0FC0AF1428F4D7
:10568000E72CEF0CEA18AF2C08C0E72C06C080E22C
:1056900090E0B6010E94F12BA394AF14C0F304C0B4
:1056A000AF1410F4FA1801C0FF2484FE0FC080E389
:1056B00090E0B6010E94F12B82FE1FC081FE03C064
:1056C00088E590E010C088E790E00DC0C4018678BE
:1056D0009070009791F081FC02C080E201C08BE2E3
:1056E000B7FC8DE290E0B6010E94F12B06C080E38A
:1056F00090E0B6010E94F12BEA947E14C0F37A94F4
:10570000F201E70DF11D808190E0B6010E94F12BBE
:105710007720A9F706C080E290E0B6010E94F12B45
:10572000FA94FF20C1F737CEF6012681378102C0F7
:105730002FEF3FEFC9012C960FB6F894DEBF0FBED6
:10574000CDBFCF91DF911F910F91FF90EF90DF9030
:10575000CF90BF90AF909F908F907F906F905F9011
:105760004F903F902F900895DC01CB01FC01E1990F
:10577000FECF06C0FFBBEEBBE09A31960DB20D9294
:1057800041505040B8F70895DC01CB0103C02D9182
:105790000E94CF2B41505040D0F70895262FE19919
:1057A000FECF9FBB8EBB2DBB0FB6F894E29AE19A59
:1057B0000FBE01960895FC010590615070400110E4
:1057C000D8F7809590958E0F9F1F0895FC0161502A
:1057D000704001900110D8F7809590958E0F9F1F13
:1057E00008950F931F93CF93DF938C01EB018B816F
:1057F00081FF1BC082FF0DC02E813F818C819D8166
:105800002817390764F4E881F9810193F983E88363
:1058100006C0E885F985802F0995009731F48E81BF
:105820009F8101969F838E8302C00FEF1FEFC801F7
:10583000DF91CF911F910F910895FA01AA27283087
:1058400051F1203181F1E8946F936E7F6E5F7F4F4D
:105850008F4F9F4FAF4FB1E03ED0B4E03CD0670FC9
:10586000781F891F9A1FA11D680F791F8A1F911D1C
:10587000A11D6A0F711D811D911DA11D20D009F46C
:1058800068943F912AE0269F11243019305D3193AE
:10589000DEF6CF010895462F4770405D4193B3E097
:1058A0000FD0C9F7F6CF462F4F70405D4A3318F03E
:1058B000495D31FD4052419302D0A9F7EACFB4E0EF
:1058C000A6959795879577956795BA95C9F70097A7
:1058D0006105710508959B01AC010A2E0694579548
:1058E000479537952795BA95C9F7620F731F841F9F
:0A58F000951FA01D0895F894FFCF46
:1058FA0053455420534E3D004465766963652073D1
:10590A00657269616C206E6F203A2000206F6B0A05
:10591A0000414630303100534E3D000A002020201D
:10592A00202020202020202020202020202020206D
:10593A00200048532D564332300053746172746903
:10594A006E67005761726D696E672075702E2E0042
:10595A0048414E534F20494E432E005761726D699C
:10596A006E672075700057616974207761726D697E
:10597A006E672075702E2E00436865636B696E67CB
:10598A002E2E0052454144590052656164792074B3
:10599A006F2072756E005374616E646172642028A0
:1059AA00322D4379636C6529202000416476616E4B
:1059BA006365642028352D4379636C6529202000AE
:1059CA0053656C662D546573742020202020202096
:1059DA00202020200053455455500053656C6563C0
:1059EA00742072756E206D6F64652E2E00494E46C6
:1059FA004F0054494D450020253034642F2530325C
:105A0A00642F2530326420253032643A25303264DE
:105A1A003A25303264005365742074696D652E2E00
:105A2A00002D2D2D2D002D2D005354415449535432
:105A3A0049435300546F74616C2072756E20637908
:105A4A00636C65730020253564202F2032302C309A
:105A5A0030302020202020202000526573657420D9
:105A6A0073746174697374696373203F0020205BE7
:105A7A005945535D20202020205B4E4F5D20202079
:105A8A000053656C662D546573740054696D653AEC
:105A9A0020253364206D696E202532642073656386
:105AAA000052756E6E696E672073656C662D74653B
:105ABA0073742E2E0052756E6E696E670020253241
:105ACA00642D6379636C65202F202532642D6379F8
